:10000000CCEF05F00000000000EF00F00000000061
:0A0010000000000000000000F3D71C
:08001C000AAE029E000E120064
:100024000B840BAE1DEF00F0010E036E026A016A31
:0A003400006A0A360232FF0E1200C5
:10003E000B820BAE29EF00F00368026801680068BE
:08004E000A360232FF0E120017
:0E005600026A016A006A086A036A000E12005C
:100064000CB074EF00F00CA21AEF01F00E6A000E4F
:1000740002648BEF00F0F00E0214D8A456EF00F0E7
:10008400023A01380F0B02260138F00B016E0038DA
:100094000F0B01260038F00B006E08380F0B0026FA
:1000A4000838F00B086E0E84D89002BE6FEF00F093
:1000B40008360036013602360E2A02BE6FEF00F013
:1000C40008360036013602360E2A02BE6FEF00F003
:1000D40008360036013602360E2A0E50036410EF3D
:1000E40001F0035E0BBC08AE15EF01F0D880800E62
:1000F40008640030000E002201220222D8A015EF6D
:1001040001F0023201320032034A1AEF01F015EF16
:1001140001F001C002F000C001F008C000F0086A5C
:10012400000E0E860264C2EF00F0F00E0214D8A492
:10013400AAEF00F0023A01380F0B02260138F00B47
:10014400016E00380F0B01260038F00B006E0E8490
:10015400D89002BE6FEF00F00036013602360E2A48
:1001640002BE6FEF00F00036013602360E2A02BEE0
:100174006FEF00F00036013602360E2A6FEF00F002
:1001840001C002F000C001F0006A000E0E960E8855
:100194000264EFEF00F0F00E0214D8A4DAEF00F0DE
:1001A400023A01380F0B02260138F00B016E0E845F
:1001B400D89002BE6FEF00F0013602360E2A02BE5E
:1001C4006FEF00F0013602360E2A02BE6FEF00F028
:1001D400013602360E2A6FEF00F001C002F0016A08
:1001E400000E0E8602641FEF01F0F00E0214D8A474
:1001F400FEEF00F0023A0E84D89002BE6FEF00F0DA
:1002040002360E2A02BE6FEF00F002360E2A02BE3C
:100214006FEF00F002360E2A6FEF00F0010E0C6E45
:10022400FFDE22EF01F0020E0C6EF6DE22EF01F08B
:10023400040E0C6E02DF22EF01F0080E0C6E09DFD3
:020244001200A6
:0E024600ACB202D00000FCD733C0ADFF1200F6
:100254000B800BAE36EF01F0026A0AAEFF0E026E9F
:0C026400016E006E0A360232FF0E12001E
:10027000025006180E6E086A096A0B6A035007647A
:100280002BEF02F006500A6E068E028E03500B6EA4
:100290000750036E000E0B647BEF01F00B50075EFE
:1002A000D8B41CEF02F0070E0764EAEF01F0075E16
:1002B00000C008F001C000F002C001F0026A074E61
:1002C0001CEF02F00764BFEF01F0075E00C008F00A
:1002D00001C000F0016A074E1CEF02F007649DEFB9
:1002E00001F0075E00C008F0006A074E1CEF02F044
:1002F000076484EF01F00AC002F005C001F004C0F9
:1003000000F0086A45EF03F0030E07648FEF01F079
:10031000075E08380F0B086E074E1CEF02F0D890EE
:100320000832074E1CEF02F0D8900832074E1CEF3F
:1003300002F0D89008321CEF02F0030E0764AEEF13
:1003400001F0075E08380F0B086E0038F00B082626
:1003500000380F0B006E074E1CEF02F0D8900032F1
:100360000832074E1CEF02F0D89000320832074ED8
:100370001CEF02F0D890003208321CEF02F0030E9E
:100380000764D6EF01F0075E08380F0B086E0038DF
:10039000F00B082600380F0B006E0138F00B00261A
:1003A00001380F0B016E074E1CEF02F0D89001329E
:1003B00000320832074E1CEF02F0D89001320032B2
:1003C0000832074E1CEF02F0D8900132003208329A
:1003D0001CEF02F0030E076407EF02F0075E083817
:1003E0000F0B086E0038F00B082600380F0B006E5C
:1003F0000138F00B002601380F0B016E0238F00BAC
:10040000012602380F0B026E074E1CEF02F0D89047
:100410000232013200320832074E1CEF02F0D8904F
:100420000232013200320832074E1CEF02F0D8903F
:100430000232013200320832096A000E0EAE10EFAD
:1004400003F0081E001E011E021E082A00220122BF
:10045000022210EF03F00750D8A431EF02F045EF6D
:1004600003F0096A02C00AF0028E068E0750035C90
:10047000076ED8B403EF03F0070E0764D1EF02F064
:10048000075E0450096E0550046E0650056E066A3C
:10049000074E03EF03F0070E0764A6EF02F0075EB6
:1004A0000450096E0550046E056A074E03EF03F011
:1004B000070E076484EF02F0075E0450096E046AB9
:1004C000074E03EF03F0070E07646BEF02F00AC05C
:1004D00002F045EF03F0030E076476EF02F0075ECB
:1004E00009380F0B096E074E03EF03F0D89009325D
:1004F000074E03EF03F0D8900932074E03EF03F0E5
:10050000D890093203EF03F0030E076495EF02F071
:10051000075E09380F0B096E0438F00B0926043802
:100520000F0B046E074E03EF03F0D890043209322C
:10053000074E03EF03F0D89004320932074E03EF61
:1005400003F0D8900432093203EF03F0030E07647E
:10055000BDEF02F0075E09380F0B096E0438F00B8F
:10056000092604380F0B046E0538F00B04260538F5
:100570000F0B056E074E03EF03F0D89005320432DF
:100580000932074E03EF03F0D890053204320932E6
:10059000074E03EF03F0D89005320432093203EF1F
:1005A00003F0030E0764EEEF02F0075E09380F0B4D
:1005B000096E0438F00B092604380F0B046E053859
:1005C000F00B042605380F0B056E0638F00B0526D8
:1005D00006380F0B066E074E03EF03F0D890063275
:1005E000053204320932074E03EF03F0D890063289
:1005F000053204320932074E03EF03F0D890063279
:10060000053204320932086A000E0EAE10EF03F014
:10061000091E041E051E061E092A042205220622A2
:1006200009500826045000220550012206500222DB
:100630000EBE27EF03F0D8A036EF03F002320132EE
:1006400000320832033E36EF03F040EF03F0D8B03B
:100650003BEF03F0000E081E001E011E021E082ABA
:100660000022012202220A7E3BEF03F0010E0C6EF3
:10067000F9DC47EF03F0020E0C6EF4DC47EF03F0F9
:10068000040E0C6EDCDC47EF03F0000E0C6E120063
:080690000B6A0B86FF0E12003D
:1006980000C008F00B6A0C6A9E0E036E0A6A026AB2
:0C06A800016A006A020E0C6ED9DC120020
:1006B400AECF01F0ABA202D0AB98AB8801C000F082
:0206C400120022
:1006C6000B6A0C6A0A6A0350D8B498EF03F00A9EC4
:1006D600028E860E035E03BE76EF03F0D8B476EF85
:1006E60003F09BEF03F0036C080E035CD8A084EFC5
:1006F60003F0036E0236026A0350D8A4D8908DEF39
:1007060003F00350D8B48DEF03F0D8900232032ED5
:1007160088EF03F00BBC02A098EF03F0D8A098EF87
:1007260003F0022AD8B4A2EF03F0016AA7EF03F0A0
:100736000B800BAEABEF03F0016AABEF03F0010EDB
:100746000C6E85DDADEF03F0000E0C6EADEF03F021
:0A075600FF0E0C6E0250006E120040
:0A076000000E9EBA010E006E12009A
:10076A000900F5CFE6FF0006FBE10106F9E11200F8
:10077A00460E236E020E246E330E256E000E266E72
:10078A00B40E276E060E286E000E296E000E2A6E13
:10079A00600E1B6E070E1C6E000E1D6E000E1E6E86
:1007AA00FF0E1F6EFF0E206E000E216E000E226ECF
:1007BA00AC8A900EAB6E948E949C9EAA03D0AECF58
:0607CA0000F0FBD7120055
:1007D000326A2FC0E9FF30C0EAFFEECF31F031506E
:1007E000000A0DE031C033F02EDD322A32502F24C2
:1007F000E96E000E3020EA6EEECF31F0F0D7120035
:06080000067E36DD120049
:100806000450000A12E10550000A0FE10650000AE2
:100816000CE10750000A09E1FF0E006EFF0E016EA3
:100826007F0E026EFF0E036EA7D0086A096A075094
:10083600D8B4AEEF04F00350D8B4B2EF04F00250CF
:1008460006180A6E028E068E0E6A02C008F001C0F5
:100856000CF000C00DF004500D5E0550D8A0053C0C
:100866000C5E0650D8A0063C085E086A0C6A0D6A43
:10087600D8A045EF04F0D890023201320032083297
:10088600010E0E6E0750035ED8A052EF04F07E0EE6
:100896000E240326D8B0B7EF04F058EF04F07E0E0E
:1008A6000E240326D8A0BCEF04F0180E0B6E0D36EE
:1008B6000C3608360036013602360E360450005E17
:1008C6000550D8A0053C015E0650D8A0063C025E45
:1008D60006340E120EA073EF04F00D807EEF04F0C6
:1008E600045000260550D8B0053C01260650D8B065
:1008F600062802260D900B2E5AEF04F0A4EF04F002
:10090600D8900036013602360E360450005E055089
:10091600D8A0053C015E0650D8A0063C025E06340F
:100926000E10010B0D26D8B00C2AD8B4082AD8A46C
:10093600A4EF04F008320C320D32032AD8B4B7EF14
:1009460004F00AAE089E0850026E0C50016E0D505F
:10095600006EBFEF04F0010E98DEBFEF04F0020E4A
:100966002BEC00F0BFEF04F0040E1FEC00F0BFEF1D
:0A09760004F0080E12EC00F012006D
:100980002FC000F030C001F0010E2F5E000E305A73
:0E0990000050011003E000000000F2D712003A
:10099E000B6A0350D8B415EF05F002500A6E028EA2
:1009AE008E0E035E03AE19EF05F0036C080E035CAA
:1009BE00D8A0F4EF04F0036E013602C001F0026A13
:1009CE00080E035CD8A0F4EF04F0036E0136016A42
:1009DE000350D8A4D890FEEF04F00350D8B4FEEF25
:1009EE0004F0D89002320132032EF8EF04F00BBC63
:1009FE0001A00BEF05F0D8A00BEF05F0012AD8B43B
:100A0E00022A02BE28EF05F00AAE2EEF05F0021EF6
:100A1E00011E012AD8B4022A2EEF05F0026A016ADD
:100A2E002EEF05F00B800BAE32EF05F0026A0AAE28
:100A3E0032EF05F0FF0E026E016E0A36023232EF11
:100A4E0005F0010E0C6E2AEC01F034EF05F0000EED
:100A5E000C6E34EF05F0FF0E0C6E0150006E02505E
:040A6E00016E120003
:100A7200086A096A000E07620364BEEF05F00250BD
:100A820006180A6E075003267E0ED8A04FEF05F017
:100A9200035ED8B0C3EF05F053EF05F0035ED8A0B4
:100AA200C8EF05F0028E068E02C00EF001C00BF0F8
:100AB20000C00DF000500402F4CF0CF0015005020A
:100AC200F4CF00F0F3CF08F00402F3500C26F450F8
:100AD2000822000E00220D500502F3500C26F4509D
:100AE2000822000E002202500402F3500826F4509D
:100AF200002202500502016A000E0122F350002674
:100B0200F45001220D500602F3500826F450002240
:100B1200026A000E012202220B500602F350002646
:100B2200F4500122000E02220E500602F35001265A
:100B3200F450022202BEA6EF05F008360036013656
:100B420002360306D8B4C8EF05F0B9EF05F0D88035
:100B5200800E08640030000E002201220222D8A07A
:100B6200B9EF05F0023201320032034AC3EF05F059
:100B72000AAE029E000ECBEF05F0010E2BEC00F048
:100B8200CBEF05F0020E1FEC00F0CBEF05F0040EE8
:060B920012EC00F012005D
:100B9800520E156E650E166E610E176E640E186E87
:100BA800790E196E1A6A946AB886B06A670EAF6EC3
:100BB800AC84DFDD020E0B6E040E0C6EBA0E0D6EE9
:100BC8000D2EFED70C2EFCD70B2EFAD70000150ED3
:100BD8002F6E000E306EF8DD0A0E336E23EC01F036
:100BE8000D0E336E23EC01F0000E2B6E000E2C6EF2
:100BF800160E2D6E860E2E6EAFDD005229E1FF0E09
:100C0800826E2BC000F02CC001F02DC002F02EC067
:100C180003F0C1DE00C02FF001C030F0ADDE826A03
:100C28002BC004F02CC005F02DC006F02EC007F034
:100C3800000E006E000E016E7A0E026E890E036EB3
:100C4800DBDDA9DE00C02FF001C030F095DED4D77F
:100C58002DDD1EDD00C02BF001C02CF002C02DF0F0
:100C680003C02EF0000E046E000E056E7F0E066E99
:100C7800860E076EC4DD000E046E000E056E160E9D
:100C8800066E870E076EF1DE00C02BF001C02CF057
:100C980002C02DF003C02EF012DD00C033F023ECAB
:060CA80001F0AAD7FFD7FE
:020000040030CA
:0D000100021F1EFF8381FF0FC00FE00F40A4
:00000001FF
